:100000000C9434000C9485000C9446000C9446002B
:100010000C9446000C9446000C9446000C94460048
:100020000C9446000C9446000C9446000C94460038
:100030000C9446000C9446000C9446000C94460028
:100040000C9446000C9446000C9446000C94460018
:100050000C9446000C9446000C9446000C94460008
:100060000C9446000C94460011241FBECFEFD8E03C
:10007000DEBFCDBF21E0A0E0B1E001C01D92A43001
:10008000B207E1F70E9448000C944C010C94000068
:100090008FEF84B915B88BEF8AB980E18A95F1F7B3
:1000A00000C08DB381608DBB85B7816085BF7894BA
:1000B0008BB181608BB985E08A95F1F78BB18E7F2A
:1000C0008BB980910201909103016AE370E00E9474
:1000D0002401072E000C880B990B0E94C50020E01C
:1000E00030E040E05FE30E94BE0018163CF085B1AE
:1000F0008F7D85B985B1806185B9DACF85B18F7E75
:1001000085B985B1806285B9D3CF1F920F920FB6A2
:100110000F9211248F939F93EF93FF93809100018F
:1001200090910101019781F410928100E4E8F0E0E0
:10013000808191819093030180930201118210824A
:100140001092010110920001809100019091010133
:10015000892B59F4E1E8F0E080818160808381E0BF
:1001600090E09093010180930001FF91EF919F91A6
:100170008F910F900FBE0F901F9018950E94000155
:1001800008F481E00895E89409C097FB3EF4909547
:100190008095709561957F4F8F4F9F4F9923A9F060
:1001A000F92F96E9BB279395F695879577956795EF
:1001B000B795F111F8CFFAF4BB0F11F460FF1BC033
:1001C0006F5F7F4F8F4F9F4F16C0882311F096E9C6
:1001D00011C0772321F09EE8872F762F05C0662374
:1001E00071F096E8862F70E060E02AF09A95660F2D
:1001F000771F881FDAF7880F9695879597F90895E6
:10020000990F0008550FAA0BE0E8FEEF1616170627
:10021000E807F907C0F012161306E407F50798F08F
:10022000621B730B840B950B39F40A2661F0232BA8
:10023000242B252B21F408950A2609F4A140A69524
:100240008FEF811D811D089597FB072E16F40094F2
:1002500007D077FD09D00E94380107FC05D03EF495
:10026000909581959F4F0895709561957F4F089562
:10027000AA1BBB1B51E107C0AA1FBB1FA617B707CC
:1002800010F0A61BB70B881F991F5A95A9F78095E8
:0C0290009095BC01CD010895F894FFCFBB
:00000001FF
